:020000040000FA
:1000000020020020F100000017010000D5000000D0
:1000100000000000000000000000000000000000E0
:100020000000000000000000000000001B010000B4
:1000300000000000000000001D0100001F01000082
:100040002101000021010000490500008505000094
:100050002101000021010000210100002101000018
:1000600021010000F9080000210100002101000029
:1000700035090000210100002101000021010000DC
:1000800021010000210100002101000021010000E8
:1000900021010000210100002101000021010000D8
:1000A00021010000210100002101000021010000C8
:1000B00021010000210100002101000021010000B8
:1000C0000348854600F09AF800480047D910000020
:1000D0002002002004207146084202D0EFF309807C
:1000E00001E0EFF308807146004A10472506000042
:1000F0000C480D4901600D4901600D4901600D4A30
:100100000D4911600D4A0E491160002101600D4832
:1001100080470D480047FEE7FEE7FEE7FEE7FEE703
:10012000FEE700000001004059000000160000003A
:100130008800000024000040A55A00008002004012
:1001400001000000E1070000C100000030B50B46CF
:10015000014600202022012409E00D46D5409D42A1
:1001600005D31D469540491B254695404019154627
:10017000521E002DF1DC30BD03460B439B0703D01C
:1001800009E008C9121F08C0042AFAD203E00B785C
:100190000370401C491C521EF9D27047F0B51FB4C1
:1001A0000646002082B005464024019100901BE0E5
:1001B000019922460F46304600F042F8049A059B0A
:1001C000801A994110D310461946224600F028F8AB
:1001D000361A8F410197224601200021009F00F02E
:1001E0001FF838184D4100902046641E0028DFDCBF
:1001F000019B00982946324607B0F0BD064C012508
:10020000064E05E0E36807CC2B430C3C98471034BE
:10021000B442F7D3FFF758FF6C1200008C120000B5
:1002200010B5202A04DB0146203A9140002010BD81
:10023000914020239C1A0346E3401943904010BD8F
:1002400010B5202A04DB0846203AD040002110BD1A
:100250000B46D340D0402024A21A914008431946AF
:1002600010BD000010B5114C00224021204600F0C6
:10027000C5F901220621204600F0A2F9022000F073
:10028000E5F900228021204600F0B8F9A2000721FC
:10029000204600F095F9032000F0D8F904483A21EF
:1002A00001606169C0200143616110BD00400040F0
:1002B00040440040F8B5144EB0690027134D0028A3
:1002C00005D0AF60F06901280FD0EF60F8BD6C6811
:1002D000A8687D21201AC900FFF738FF0029F1D155
:1002E00021460BA000F098FCECE76C68E8687D21E3
:1002F000201AC900FFF72AFF0029E7D121460BA0E9
:1003000000F08AFCF8BD000000480040100000200A
:1003100050413620627574746F6E2070726573730D
:100320006564203A202534640D0A000050413720CE
:10033000627574746F6E2070726573736564203AB1
:10034000202534640D0A00000EB509490EC900913C
:100350000192810F8A00029369468A580549511813
:100360004A68C306DB0E0120984002434A600EBD76
:10037000EC1100000002004002490A6802430A60D2
:10038000704700000002004010B500F0DFF901489E
:10039000006810BD0000002002480068C00700D0BF
:1003A00001487047000200400048E8010448006826
:1003B000800702D50120C00370470020704700006D
:1003C0000002004010B500F0C1F90448406B41073D
:1003D0000348490F0068C84010BD000000020040FB
:1003E0000000002010B500F0B1F90448406B400651
:1003F000410F03480068C84010BD000000020040E3
:100400000000002008B511A000681149009009689B
:10041000002005221204114216D1080301D50D480F
:1004200000E00D488A030FD40A04920F6B469B5CD0
:10043000CA058904D20DC90E891C8008921C594333
:100440005043FFF783FE800008BD00000102020454
:1004500040020040001BB7000048E801F3B5124815
:1004600081B005690F4610200F4C0540403C2068C4
:10047000042630432060102000F050F82069072146
:1004800008432061206A0009000138432062206986
:10049000884301990843206100F058F9002D02D1EA
:1004A0002068B0432060FEBD40020040F0B5194B0B
:1004B00088B0F0CB009401ACE0C478CB04AF78C72F
:1004C000840A23061B0E0ED003039B0F9B0004AD72
:1004D000EB58114D5B19E5B28405E40EA5401C688C
:1004E000AC4314431C60420E520710D08200920F9E
:1004F00092006B469A58084B103BD21803015B0FD1
:10050000C001C00E8340106898430843106008B0D3
:10051000F0BD0000CC1100002002004010B50446E0
:100520000749084B05E00A46491E002A01DC002065
:1005300010BD1A6920469043F5D1012010BD00007E
:1005400080F520004002004010B50648016A4906C7
:1005500007D54021016204484168816003A000F092
:100560005BFB10BD004000401000002050412E36C3
:100570002045494E5430206F636375727265642E56
:100580000A00000010B50648016A090607D5802157
:10059000016204484168C16003A000F03DFB10BD4A
:1005A000004000401000002050412E372045494EA9
:1005B0005431206F636375727265642E0A00000007
:1005C00010B58369140E8C4023438361C369120202
:1005D000120A8A401343C36110BD000010B5064CD7
:1005E00001229103204600F009F80122D1032046A0
:1005F00000F004F810BD000040400040F0B50023BA
:1006000001273C469C400C4208D005685C0003264C
:10061000A640B5431646A640354305605B1C102B2B
:10062000EFD3F0BD044603A000F0F6FA204600F038
:1006300061FDFEE7496E2048617264204661756C79
:10064000742048616E646C65720A0000C106C90EB0
:1006500001208840014908607047000000E100E087
:10066000BFF34F8F04490348C860BFF34F8F00BFEB
:10067000FDE700000400FA0500ED00E070B5592028
:10068000204C162288212060226021602368002BE4
:10069000F9D00520FFF770FE1120FFF73FFF0A2079
:1006A000FFF76AFE0A20FFF739FF00210720FFF756
:1006B000D5FE154D2846FFF747FE03210022090607
:1006C0002846FFF7F3FE114D2846FFF73DFE0721B0
:1006D000002209032846FFF7E9FE01208007C16BCD
:1006E000FF2212049143332252048918C163016B23
:1006F000FF2212061143016300F028F80020206059
:1007000070BD000000010040103D805F0300C05E2E
:100710000121020E890751188B6801228240134380
:100720008B608868904388607047000006498A693A
:100730001202FCD40A2804D10D220A608A6912022E
:10074000FCD408607047000000000740F8B51D4D5C
:1007500028691C4944071CA000680090640F002011
:100760004031096805221204114216D1080301D54F
:10077000164800E016488A030FD40A04920F6B460D
:100780009B5CCA058904D20DC90E891C8008921C85
:1007900059435043FFF7DAFC80000E4E022CB06044
:1007A00002D00D49A0000858296A0907090F491C01
:1007B000FFF7CCFC094930604A108018FFF7C6FCEF
:1007C0007060F8BD0002004001020204001BB70087
:1007D0000048E80100000020AC11000040420F007A
:1007E00010B559210A48162388220160036002606F
:1007F0000468002CF9D007490B68072212059343BF
:100800000B600B6813430B600021016010BD0000FA
:10081000000100400002004010B50A4C7D22012179
:10082000D200C906204600F047F820682106084398
:1008300020600920FFF70AFF206861060843206056
:1008400010BD00002000054010B588B004462022ED
:1008500015496846FFF790FC144B144A144820339E
:10086000944202D14069000A0BE09C4202D14069E7
:10087000000B06E00F4940698C4201D1000C00E0FA
:10088000000D4107490F022904D088006946085825
:1008900008B010BD944201D09C4202D1FFF792FDF6
:1008A000F6E7FFF79FFDF3E70412000000000540A4
:1008B0000002004000100540F7B517460646FFF756
:1008C000C3FF054600244008B84201D8022008E0D2
:1008D00039462846FFF73AFC040E02D0611CFFF7A8
:1008E00035FC0199214331607060641C604301460E
:1008F0002846FFF72BFCFEBD10B50B488168C907E1
:10090000C90F0FD00124846000F048FC07487D2106
:100910004068C900FFF71AFC002903D10448816B25
:100920006140816310BD00002000054010000020E0
:100930004048004010B50B4CE06911210902084203
:1009400002D104E000F040F9A1694904FAD5A16997
:1009500020467122114203D00921890200F07AF861
:1009600010BD00000000074010B51748FFF7D0FE8B
:10097000164CE1214902204600F08CF81121204656
:1009800000F084F80C20FFF761FEFFF7FDFC014644
:100990000FA000F041F9FFF7FFFC014613A000F0A3
:1009A0003BF9FFF703FD014616A000F035F9FFF70C
:1009B00009FD014619A000F02FF9FFF713FD0146CC
:1009C0001DA000F029F910BD100000040000074030
:1009D0000D0A434C4B5F4765744350554672657131
:1009E000203A202538640D0A00000000434C4B5F7C
:1009F00047657448585446726571203A202538641A
:100A00000D0A0000434C4B5F4765744C58544672C6
:100A10006571203A202538640D0A0000434C4B5F75
:100A200047657450434C4B3046726571203A20251F
:100A300038640D0A00000000434C4B5F476574505A
:100A4000434C4B3146726571203A202538640D0ABB
:100A500000000000CA0102D501221204C2614A0549
:100A600003D570228261082282610A0503D542699A
:100A700001231A4342618A0401D5034A8261490471
:100A800001D51F21416470470100000142680A43FB
:100A900042607047F0B587B00F46044600252E46E9
:100AA00018223E496846FFF767FB3D493D483E4AEC
:100AB0008C4204D14369006A5B015D0F1FE03B4B30
:100AC0009C4204D14369006A5B005D0F22E09442BE
:100AD00004D1C369006B5B015D0F11E0344B9C4294
:100AE00006D1C369006B5B005D0F0006060F13E0C3
:100AF000304B9C4207D1C369006B5B035D0F000A5A
:100B00000607360F08E02C4B9C4205D1C369006BE9
:100B10005B025D0F0004060F002020630320E060ED
:100B2000A068264B1840A060012D02D0042D04D0EF
:100B300013E0FFF767FC01900FE08C4207D094426E
:100B400005D01C48844202D01D48844202D1FFF7E0
:100B500039FC01E0FFF746FC0490002F1BD0A900F0
:100B600068464058711CFFF7F1FA054679084018AD
:100B70003946FFF7EBFA1349801E884207D9F9007E
:100B800068183946FFF7E2FA0009801E02E00321E7
:100B900009070843606207B0F0BD0000241200009E
:100BA00000000740000200400020074000100740FE
:100BB0000030074000400740005007400FFFF0FFA3
:100BC00000600740FFFF000010B50D480068C0B28C
:100BD000782813D0582811D07F2803D909A000F015
:100BE0001BF810BD5A2809D004DC3128F9D0582848
:100BF000F7D103E0782801D07A28F2D1FFF730FD51
:100C000000000740696E76616C696420636F6D6DEA
:100C1000616E640D0A0000000FB410B503A9044B07
:100C2000044A029800F018F810BC08BC04B0184739
:100C3000CD1000000C00002002E008C8121F08C1FF
:100C4000002AFAD170477047002001E001C1121F4D
:100C5000002AFBD170470000FFB591B00F46054652
:100C6000002606E025280AD0149A139990476D1C97
:100C7000761C28780028F5D1304615B0F0BD002448
:100C800000940121F34A029400E004436D1C2B7888
:100C90000846203B98401042F7D128782A280ED0E9
:100CA000022128780246303A092A15D8009A0A23E8
:100CB0005A43303A80180C436D1C0090F1E701CF85
:100CC0000090002805DA01204003044300984042C8
:100CD0000090022004436D1C28782E2815D1042092
:100CE000044368786D1C2A280AD101CF6D1C02903C
:100CF0000BE002990A225143303940186D1C0290D2
:100D00002878014630390929F3D928786C2810D081
:100D100006DC4C281AD068280ED06A2817D104E0C7
:100D2000742813D07A2812D110E001204005044322
:100D30000CE00121090501E0032109050C43697854
:100D4000814203D10120000524186D1C6D1C2878F8
:100D500003906E281ED00CDC632831D004DC002800
:100D60008AD0582811D1B2E064287BD069280CD1F0
:100D700078E073282DD004DC6F2870D0702804D15F
:100D8000A7E075286CD078286BD0149A13999047F7
:100D9000761C62E06002400F022807D003280AD0C8
:100DA000042838680AD006603F1D56E03868F117FD
:100DB00006604160F8E738680680F5E70670F3E7FB
:100DC0003878694608740020487404A8039001200C
:100DD00003E0386803900020C0433F1D61070FD532
:100DE000002101E00199491C029A0191914213DA14
:100DF0008142F7DB019A0399895C0029F2D10BE06B
:100E0000002101E00199491C01918142FADB019A1C
:100E10000399895C0029F5D101990098139A401A29
:100E200000902146149B00F03BF901998019461867
:100E300007E0039803990078491C0391149A1399C9
:100E400090470198401E0190401CF2D12146149B0E
:100E5000139A009800F014F986196D1C09E741E017
:100E600033E034E00A200021049005916002410F34
:100E7000022905D001CFC2179446032905D007E007
:100E8000FF1DFF08FF0003CF06E000B2C217944623
:100E9000042902D140B2C1178C4600226146944514
:100EA00006DA0A460021404291418C462D2102E09B
:100EB000210504D52B216A461176012103E0E107C3
:100EC00001D02021F7E7019154E00A200BE0102027
:100ED00009E010200490002104200443082005911B
:100EE000029003E008200021059104906002410F68
:100EF000022905D001CF00229446032906D006E03E
:100F0000FF1DFF08FF0003CF8C4603E080B20429D9
:100F100000D1C0B20021019121072BD5039970297E
:100F200006D0049A1021059B4A401A4305D00EE0D2
:100F300040216A461176012108E06146014306D04E
:100F400030216A4611760399517602210191049A63
:100F50000821059B4A401A430CD16146014301D147
:100F6000610707D530216A46117601210191029966
:100F7000491E02910399582904D037A103910FA962
:100F80000F910DE039A1F9E76146059B049AFFF73F
:100F900005F9039B8C469B5C0F9A521E0F921370AF
:100FA00061460143F0D10F9807A9081A2030039039
:100FB000600704D5012000048443029801E0012069
:100FC00002900399884201DD401A00E00020411898
:100FD0000290019809180098401A0090E00306D486
:100FE0002146149B139A009800F05AF886190020A5
:100FF000049008E006A9085C149A13999047049895
:10100000401C761C049001998842F3DBE0030CD568
:101010002146149B139A009800F042F8861904E0C8
:10102000149A302013999047761C0299481E02901A
:101030000029F5DC08E00F980F990078491C0F9102
:10104000149A13999047761C0399481E039000291F
:10105000F1DCFBE609280100303132333435363714
:1010600038396162636465660000000030313233F4
:101070003435363738394142434445460000000094
:10108000F8B5044600251E461746880404D405E03A
:1010900039462020B0476D1C641EF9D52846F8BD9E
:1010A000FFB50446002581B01E46C80301D5302790
:1010B00000E02027880404D505E038460399B047AE
:1010C0006D1C641EF9D5284605B0F0BD10B5044668
:1010D000FFF72CFB204610BDFFF7D0FAFFF744FCCA
:1010E000FFF77CFAFFF7BEF8FFF796FBFFF7E2F891
:1010F000FCE7000010B50446016810A0FFF78CFD66
:1011000011A06168FFF788FD12A0A168FFF784FDB8
:1011100013A0E168FFF780FD14A02169FFF77CFDB3
:1011200015A06169FFF778FD16A0A169FFF774FDAE
:1011300017A0E169FFF770FD10BD0000723020209C
:101140003D20307825780A00723120203D2030780B
:1011500025780A00723220203D20307825780A0058
:10116000723320203D20307825780A0072313220F9
:101170003D20307825780A006C7220203D203078A0
:1011800025780A00706320203D20307825780A00F9
:10119000707372203D20307825780A00024841683B
:1011A000491C416070470000100000200048E80121
:1011B0000080000000D8B80500960000006CDC023A
:1011C0000000000000000000006CDC0200000000D5
:1011D00004000000080000000C00000000000000F7
:1011E00000000000000000001000000000000000EF
:1011F00004000000080000000000000004000000DF
:10120000080000000048E801008000000000000025
:101210000000000000000000009600000000000038
:10122000006CDC020048E8010000000000800000C3
:10123000006CDC0200000000009600000048E8019D
:101240000000000000800000006CDC0200000000D4
:10125000009600000048E801000000000080000047
:10126000006CDC0200000000009600008C12000000
:101270000000002020000000380C0000AC1200002C
:101280002000002000020000480C000000D8B80533
:101290006000000000D8B805000000000000000059
:0C12A00000000000000000000000000042
:04000005000000F106
:00000001FF
